{
  "transactions": [
    {
      "hash": "0x7b97641abb25ad5a22af0459e6fe38772091c8e1f00802d1f3c6f9bfc6dfaf86",
      "transactionType": "CALL",
      "contractName": null,
      "contractAddress": "0x1baabb04529d43a73232b713c0fe471f7c7334d5",
      "function": "approve(address,uint256)",
      "arguments": [
        "0x47a9Bda94082D2402D24AD852814227f2c829BaE",
        "5000000"
      ],
      "transaction": {
        "from": "0x263c0a1ff85604f0ee3f4160caa445d0bad28df7",
        "to": "0x1baabb04529d43a73232b713c0fe471f7c7334d5",
        "gas": "0xeca5",
        "value": "0x0",
        "input": "0x095ea7b300000000000000000000000047a9bda94082d2402d24ad852814227f2c829bae00000000000000000000000000000000000000000000000000000000004c4b40",
        "nonce": "0xfe",
        "chainId": "0x66eee"
      },
      "additionalContracts": [],
      "isFixedGasLimit": false
    },
    {
      "hash": "0x34db40ae2623944cc83a8b350d596658524ae64ced6faec24c2a6855ab60ba68",
      "transactionType": "CALL",
      "contractName": null,
      "contractAddress": "0x47a9bda94082d2402d24ad852814227f2c829bae",
      "function": "deposit(uint256)",
      "arguments": [
        "5000000"
      ],
      "transaction": {
        "from": "0x263c0a1ff85604f0ee3f4160caa445d0bad28df7",
        "to": "0x47a9bda94082d2402d24ad852814227f2c829bae",
        "gas": "0x14f26",
        "value": "0x0",
        "input": "0xb6b55f2500000000000000000000000000000000000000000000000000000000004c4b40",
        "nonce": "0xff",
        "chainId": "0x66eee"
      },
      "additionalContracts": [],
      "isFixedGasLimit": false
    }
  ],
  "receipts": [
    {
      "status": "0x1",
      "cumulativeGasUsed": "0xb48b",
      "logs": [
        {
          "address": "0x1baabb04529d43a73232b713c0fe471f7c7334d5",
          "topics": [
            "0x8c5be1e5ebec7d5bd14f71427d1e84f3dd0314c0f7b2291e5b200ac8c7c3b925",
            "0x000000000000000000000000263c0a1ff85604f0ee3f4160caa445d0bad28df7",
            "0x00000000000000000000000047a9bda94082d2402d24ad852814227f2c829bae"
          ],
          "data": "0x00000000000000000000000000000000000000000000000000000000004c4b40",
          "blockHash": "0x073e42b9046a21d10a7d549a4b3c8f8afe6df1622822d48b3fc65519b317ca40",
          "blockNumber": "0x74432f2",
          "transactionHash": "0x7b97641abb25ad5a22af0459e6fe38772091c8e1f00802d1f3c6f9bfc6dfaf86",
          "transactionIndex": "0x1",
          "logIndex": "0x0",
          "removed": false
        }
      ],
      "logsBloom": "0x40000000000000000000000000000000000000000000000000000000000000000000000000000000000000000000000000000000000000080000000000200000000000000000000000000000000000000000000000000000000000000000000000000000001000000000000000000000000002000000000000000000000000000000000000000000000000000000000000000000000000400000000000000000020000000000000000000000000000000000000000000000000000000000000000800000000000000000000000000001000000000000008000000000000000000010000000000000000000000000000000000000000000040000000000000000",
      "type": "0x2",
      "transactionHash": "0x7b97641abb25ad5a22af0459e6fe38772091c8e1f00802d1f3c6f9bfc6dfaf86",
      "transactionIndex": "0x1",
      "blockHash": "0x073e42b9046a21d10a7d549a4b3c8f8afe6df1622822d48b3fc65519b317ca40",
      "blockNumber": "0x74432f2",
      "gasUsed": "0xb48b",
      "effectiveGasPrice": "0x5f5e100",
      "from": "0x263c0a1ff85604f0ee3f4160caa445d0bad28df7",
      "to": "0x1baabb04529d43a73232b713c0fe471f7c7334d5",
      "contractAddress": null,
      "gasUsedForL1": "0x0",
      "l1BlockNumber": "0x74e56b"
    },
    {
      "status": "0x1",
      "cumulativeGasUsed": "0xf2a5",
      "logs": [
        {
          "address": "0x47a9bda94082d2402d24ad852814227f2c829bae",
          "topics": [
            "0xe1fffcc4923d04b559f4d29a8bfc6cda04eb5b0d3c460751c2402c5c5cc9109c",
            "0x000000000000000000000000263c0a1ff85604f0ee3f4160caa445d0bad28df7"
          ],
          "data": "0x00000000000000000000000000000000000000000000000000000000004c4b40",
          "blockHash": "0xb14e4ea8d8f995b2c255241d24364db119d19b742bccc1b4e6b6e675fa5e43bf",
          "blockNumber": "0x74432f4",
          "transactionHash": "0x34db40ae2623944cc83a8b350d596658524ae64ced6faec24c2a6855ab60ba68",
          "transactionIndex": "0x1",
          "logIndex": "0x0",
          "removed": false
        },
        {
          "address": "0x1baabb04529d43a73232b713c0fe471f7c7334d5",
          "topics": [
            "0x8c5be1e5ebec7d5bd14f71427d1e84f3dd0314c0f7b2291e5b200ac8c7c3b925",
            "0x000000000000000000000000263c0a1ff85604f0ee3f4160caa445d0bad28df7",
            "0x00000000000000000000000047a9bda94082d2402d24ad852814227f2c829bae"
          ],
          "data": "0x0000000000000000000000000000000000000000000000000000000000000000",
          "blockHash": "0xb14e4ea8d8f995b2c255241d24364db119d19b742bccc1b4e6b6e675fa5e43bf",
          "blockNumber": "0x74432f4",
          "transactionHash": "0x34db40ae2623944cc83a8b350d596658524ae64ced6faec24c2a6855ab60ba68",
          "transactionIndex": "0x1",
          "logIndex": "0x1",
          "removed": false
        },
        {
          "address": "0x1baabb04529d43a73232b713c0fe471f7c7334d5",
          "topics": [
            "0xddf252ad1be2c89b69c2b068fc378daa952ba7f163c4a11628f55a4df523b3ef",
            "0x000000000000000000000000263c0a1ff85604f0ee3f4160caa445d0bad28df7",
            "0x00000000000000000000000047a9bda94082d2402d24ad852814227f2c829bae"
          ],
          "data": "0x00000000000000000000000000000000000000000000000000000000004c4b40",
          "blockHash": "0xb14e4ea8d8f995b2c255241d24364db119d19b742bccc1b4e6b6e675fa5e43bf",
          "blockNumber": "0x74432f4",
          "transactionHash": "0x34db40ae2623944cc83a8b350d596658524ae64ced6faec24c2a6855ab60ba68",
          "transactionIndex": "0x1",
          "logIndex": "0x2",
          "removed": false
        }
      ],
      "logsBloom": "0x40000000000000000000000000000000000000000000000000000000000000000000000000000000000000000000000000000000000000080000000000200000000000000000000000000008000000000000000000000000000000008000000000000000001000000000000000000000000002000000000000000010000000000000000000000000000000000000000000000081000000400000000000000000020000000000000000000000000000000000000000000000000000000000000000808002000000000000000000000001000000000000008000000000000000000010000000000000000000080000000000000000000000440000000000000000",
      "type": "0x2",
      "transactionHash": "0x34db40ae2623944cc83a8b350d596658524ae64ced6faec24c2a6855ab60ba68",
      "transactionIndex": "0x1",
      "blockHash": "0xb14e4ea8d8f995b2c255241d24364db119d19b742bccc1b4e6b6e675fa5e43bf",
      "blockNumber": "0x74432f4",
      "gasUsed": "0xf2a5",
      "effectiveGasPrice": "0x5f5e100",
      "from": "0x263c0a1ff85604f0ee3f4160caa445d0bad28df7",
      "to": "0x47a9bda94082d2402d24ad852814227f2c829bae",
      "contractAddress": null,
      "gasUsedForL1": "0x0",
      "l1BlockNumber": "0x74e56b"
    }
  ],
  "libraries": [],
  "pending": [],
  "returns": {},
  "timestamp": 1738962118,
  "chain": 421614,
  "commit": "83d6c32"
}