{
  "transactions": [
    {
      "hash": "0x3b2803a9ea974a6726f8cc8299bf647ed335689ef699eccd8f269f4b177cb888",
      "transactionType": "CALL",
      "contractName": null,
      "contractAddress": "0x1baabb04529d43a73232b713c0fe471f7c7334d5",
      "function": "approve(address,uint256)",
      "arguments": [
        "0x47a9Bda94082D2402D24AD852814227f2c829BaE",
        "5000000"
      ],
      "transaction": {
        "from": "0x263c0a1ff85604f0ee3f4160caa445d0bad28df7",
        "to": "0x1baabb04529d43a73232b713c0fe471f7c7334d5",
        "gas": "0xeca5",
        "value": "0x0",
        "input": "0x095ea7b300000000000000000000000047a9bda94082d2402d24ad852814227f2c829bae00000000000000000000000000000000000000000000000000000000004c4b40",
        "nonce": "0x112",
        "chainId": "0x66eee"
      },
      "additionalContracts": [],
      "isFixedGasLimit": false
    },
    {
      "hash": "0x17982d6bf2076d6b447c68efa2696f08fd9853e6fda282f07e83a5741df50c77",
      "transactionType": "CALL",
      "contractName": null,
      "contractAddress": "0x47a9bda94082d2402d24ad852814227f2c829bae",
      "function": "deposit(uint256)",
      "arguments": [
        "5000000"
      ],
      "transaction": {
        "from": "0x263c0a1ff85604f0ee3f4160caa445d0bad28df7",
        "to": "0x47a9bda94082d2402d24ad852814227f2c829bae",
        "gas": "0x287f0",
        "value": "0x0",
        "input": "0xb6b55f2500000000000000000000000000000000000000000000000000000000004c4b40",
        "nonce": "0x113",
        "chainId": "0x66eee"
      },
      "additionalContracts": [],
      "isFixedGasLimit": false
    }
  ],
  "receipts": [
    {
      "status": "0x1",
      "cumulativeGasUsed": "0xb48b",
      "logs": [
        {
          "address": "0x1baabb04529d43a73232b713c0fe471f7c7334d5",
          "topics": [
            "0x8c5be1e5ebec7d5bd14f71427d1e84f3dd0314c0f7b2291e5b200ac8c7c3b925",
            "0x000000000000000000000000263c0a1ff85604f0ee3f4160caa445d0bad28df7",
            "0x00000000000000000000000047a9bda94082d2402d24ad852814227f2c829bae"
          ],
          "data": "0x00000000000000000000000000000000000000000000000000000000004c4b40",
          "blockHash": "0x6f2abe2ac6836a243385d3c59a45a83b1a402422b62b8cdfad3dd26eb343f07b",
          "blockNumber": "0x74c315f",
          "transactionHash": "0x3b2803a9ea974a6726f8cc8299bf647ed335689ef699eccd8f269f4b177cb888",
          "transactionIndex": "0x1",
          "logIndex": "0x0",
          "removed": false
        }
      ],
      "logsBloom": "0x40000000000000000000000000000000000000000000000000000000000000000000000000000000000000000000000000000000000000080000000000200000000000000000000000000000000000000000000000000000000000000000000000000000001000000000000000000000000002000000000000000000000000000000000000000000000000000000000000000000000000400000000000000000020000000000000000000000000000000000000000000000000000000000000000800000000000000000000000000001000000000000008000000000000000000010000000000000000000000000000000000000000000040000000000000000",
      "type": "0x2",
      "transactionHash": "0x3b2803a9ea974a6726f8cc8299bf647ed335689ef699eccd8f269f4b177cb888",
      "transactionIndex": "0x1",
      "blockHash": "0x6f2abe2ac6836a243385d3c59a45a83b1a402422b62b8cdfad3dd26eb343f07b",
      "blockNumber": "0x74c315f",
      "gasUsed": "0xb48b",
      "effectiveGasPrice": "0x5f5e100",
      "from": "0x263c0a1ff85604f0ee3f4160caa445d0bad28df7",
      "to": "0x1baabb04529d43a73232b713c0fe471f7c7334d5",
      "contractAddress": null,
      "gasUsedForL1": "0x0",
      "l1BlockNumber": "0x751993"
    },
    {
      "status": "0x1",
      "cumulativeGasUsed": "0x1bb09",
      "logs": [
        {
          "address": "0x47a9bda94082d2402d24ad852814227f2c829bae",
          "topics": [
            "0xe1fffcc4923d04b559f4d29a8bfc6cda04eb5b0d3c460751c2402c5c5cc9109c",
            "0x000000000000000000000000263c0a1ff85604f0ee3f4160caa445d0bad28df7"
          ],
          "data": "0x00000000000000000000000000000000000000000000000000000000004c4b40",
          "blockHash": "0x3e5600326cfafda5e9011cacb1cea47811a0aff4c7c0371e360d82e1cee0884b",
          "blockNumber": "0x74c3162",
          "transactionHash": "0x17982d6bf2076d6b447c68efa2696f08fd9853e6fda282f07e83a5741df50c77",
          "transactionIndex": "0x1",
          "logIndex": "0x0",
          "removed": false
        },
        {
          "address": "0x1baabb04529d43a73232b713c0fe471f7c7334d5",
          "topics": [
            "0x8c5be1e5ebec7d5bd14f71427d1e84f3dd0314c0f7b2291e5b200ac8c7c3b925",
            "0x000000000000000000000000263c0a1ff85604f0ee3f4160caa445d0bad28df7",
            "0x00000000000000000000000047a9bda94082d2402d24ad852814227f2c829bae"
          ],
          "data": "0x0000000000000000000000000000000000000000000000000000000000000000",
          "blockHash": "0x3e5600326cfafda5e9011cacb1cea47811a0aff4c7c0371e360d82e1cee0884b",
          "blockNumber": "0x74c3162",
          "transactionHash": "0x17982d6bf2076d6b447c68efa2696f08fd9853e6fda282f07e83a5741df50c77",
          "transactionIndex": "0x1",
          "logIndex": "0x1",
          "removed": false
        },
        {
          "address": "0x1baabb04529d43a73232b713c0fe471f7c7334d5",
          "topics": [
            "0xddf252ad1be2c89b69c2b068fc378daa952ba7f163c4a11628f55a4df523b3ef",
            "0x000000000000000000000000263c0a1ff85604f0ee3f4160caa445d0bad28df7",
            "0x00000000000000000000000047a9bda94082d2402d24ad852814227f2c829bae"
          ],
          "data": "0x00000000000000000000000000000000000000000000000000000000004c4b40",
          "blockHash": "0x3e5600326cfafda5e9011cacb1cea47811a0aff4c7c0371e360d82e1cee0884b",
          "blockNumber": "0x74c3162",
          "transactionHash": "0x17982d6bf2076d6b447c68efa2696f08fd9853e6fda282f07e83a5741df50c77",
          "transactionIndex": "0x1",
          "logIndex": "0x2",
          "removed": false
        }
      ],
      "logsBloom": "0x40000000000000000000000000000000000000000000000000000000000000000000000000000000000000000000000000000000000000080000000000200000000000000000000000000008000000000000000000000000000000008000000000000000001000000000000000000000000002000000000000000010000000000000000000000000000000000000000000000081000000400000000000000000020000000000000000000000000000000000000000000000000000000000000000808002000000000000000000000001000000000000008000000000000000000010000000000000000000080000000000000000000000440000000000000000",
      "type": "0x2",
      "transactionHash": "0x17982d6bf2076d6b447c68efa2696f08fd9853e6fda282f07e83a5741df50c77",
      "transactionIndex": "0x1",
      "blockHash": "0x3e5600326cfafda5e9011cacb1cea47811a0aff4c7c0371e360d82e1cee0884b",
      "blockNumber": "0x74c3162",
      "gasUsed": "0x1bb09",
      "effectiveGasPrice": "0x5f5e100",
      "from": "0x263c0a1ff85604f0ee3f4160caa445d0bad28df7",
      "to": "0x47a9bda94082d2402d24ad852814227f2c829bae",
      "contractAddress": null,
      "gasUsedForL1": "0x0",
      "l1BlockNumber": "0x751993"
    }
  ],
  "libraries": [],
  "pending": [],
  "returns": {},
  "timestamp": 1739127060,
  "chain": 421614,
  "commit": "83d6c32"
}